:020000020000FC
:040000000C944C010F
:04000C000C9415013A
:040014000C94E10067
:10002C000C94A700F8940F9308E00093C1000F9173
:10003C0078940895F8940F930CE0009381000F913D
:10004C00789408950895F8940F9300E00093850038
:10005C00009384000F9178940895F8940F9300E026
:10006C00009381000F9178940895F8940F9305B143
:10007C00026005B90F9178940895F8940F9305B127
:10008C000D7F05B90F9178940895F8940F9305B1ED
:10009C00006205B90F9178940895F8940F9305B107
:1000AC000F7D05B90F9178940895F8946F935F9331
:1000BC004F9360E05AEF40E0415050406040E0F711
:1000CC004F915F916F9178940895F8946F936BB101
:1000DC00103041F0113049F0123059F0133069F002
:1000EC000C948700637F0C9487006B7F68600C9482
:1000FC008700677F64600C948700686064600C9470
:10010C0087006BB96F9178940895F8940E9443001E
:10011C000E9433000E9428004E7F0E944B000E94D8
:10012C00200030E078940895F89441600E944300D8
:10013C000E9453000E9433000E94280030E0789403
:10014C000895F8943F5F41FD0C94AE000C94CE00E2
:10015C00333079F54D7F152F0E9433000E94280013
:10016C0030E0123021F0113039F0103051F092E3C0
:10017C009093C6000C94DF0091E39093C6000C940E
:10018C00DF0090E39093C6000C94DF000C94DF002A
:10019C0040FD0C94DF00353021F03A3031F00C94F6
:1001AC00DF000E943B000C94DF000E949A000C942C
:1001BC00DF00789418950F9309B1F8940E945B00B6
:1001CC000E945B0004FD0C94F60005FD0C94FC00F1
:1001DC0006FD0C94020107FD0C9408010C9412010D
:1001EC0095E49093C60024600C94120197E49093CC
:1001FC00C60022600C94120198E49093C600216012
:10020C000C94120191E49093C60041FD0C941201E0
:10021C000E948B000C94120178940F9118950F93F7
:10022C0003B1F8940E945B000E945B0000FD0C94EB
:10023C003C0102FD0C942A0103FD0C94300104FDD9
:10024C000C9436010C94490192E49093C6002064FE
:10025C000C94490193E49093C60020620C944901DC
:10026C0094E49093C60020610C94490196E4909319
:10027C00C60041FD0C94490140FD0C9449010E94BB
:10028C009A000C94490178940F911895F89400E019
:10029C000093C50007E60093C40006E00093C2007B
:1002AC000E94180004EF0093890004E20093880078
:1002BC0000E00093800000916F00026000936F00DB
:1002CC0002E204B90CE00AB905E0009368000DE104
:1002DC0000936B0000EF00936D000FEF0DBF08E073
:1002EC000EBF20E041E000E000930B0000930500FE
:1002FC0060E080E090E030E00E949A000E943300C1
:10030C000E94280010E050E078940E946B0041FDA0
:10031C000C948B01123041F0113011F1103011F0AE
:10032C000C94FB010C94DA0124FD0C94AE0120FD1D
:10033C000C94AE0125FD0C94B30121FD0C94B3017A
:10034C0026FD0C94B30122FD0C94B3010C94FB011B
:10035C002E7E0E948B000C94FB0151E00C94FB014F
:10036C0021FD0C94CA0120FD0C94CF0124FD0C94AA
:10037C00CF0125FD0C94D20126FD0C94D70122FD52
:10038C000C94D7010C94FB010E948B002D7F0C94D4
:10039C00FB0152E00C94FB010E948B002F7D0C940E
:1003AC00FB0150E00C94FB0122FD0C94EE0120FDAE
:1003BC000C94F30124FD0C94F30121FD0C94F30136
:1003CC0025FD0C94F30126FD0C94F6010C94FB0115
:1003DC000E948B002B7F0C94FB0151E00C94FB01D1
:1003EC000E948B002F7B0C94FB0140FF0C948B0123
:1003FC00511729F042600E9420000C948B010C9440
:02040C008B0162
:00000001FF
